:04000000A2EF00F07B
:100008005982FACF02F0FBCF03F0D9CF04F0DACF50
:1000180005F0F2AA12EF00F014EF00F01FEF00F065
:10002800F2A419EF00F01BEF00F01FEF00F066ECF0
:1000380019F098EF00F0F2A824EF00F026EF00F096
:1000480031EF00F0F2A22BEF00F02DEF00F031EFCE
:1000580000F01EEC1AF098EF00F0F0A636EF00F072
:1000680038EF00F043EF00F0F0A03DEF00F03FEF75
:1000780000F043EF00F0CFEC1AF098EF00F0F0A892
:1000880048EF00F04AEF00F055EF00F0F0A24FEF14
:1000980000F051EF00F055EF00F0CBEC1AF098EFBC
:1000A80000F0F2AC5AEF00F05CEF00F098EF00F0CF
:1000B8009DA861EF00F063EF00F07AEF00F09EA8D2
:1000C80068EF00F06AEF00F07AEF00F002D878EFFE
:1000D80000F005000001FA6EE451FD6EE551FE6E78
:1000E800F850FF6EFA50120098EF00F09DAA7FEFCB
:1000F80000F081EF00F098EF00F09EAA86EF00F084
:1001080088EF00F098EF00F002D896EF00F00500B5
:100118000001FA6EE251FD6EE351FE6EF850FF6E7B
:10012800FA50120098EF00F005C0DAFF04C0D9FFBA
:1001380003C0FBFF02C0FAFF599211004DEF19F0FE
:10080000004D6178696D756D2076616C75653A2073
:10081000252E3366200D0A00696E66006E616E003B
:0108200000D7
:10082200000E0001816F3BC082F03CC083F03DC0EE
:1008320084F03EC085F085BF23EF04F021EF04F081
:1008420037EF04F0010E816F82C006F083C007F01B
:1008520084C008F085C009F015EC19F006C082F0DA
:1008620007C083F008C084F009C085F0000E0001C3
:10087200876F000E866FEEC071F0EFC072F081518B
:10088200D8B446EF04F048EF04F05CEF04F0815175
:10089200D8A44EEF04F050EF04F056EF04F0000E2F
:1008A200676F2B0E666F5AEF04F0000E676F2D0E06
:1008B200666F66C081F082C006F083C007F084C014
:1008C20008F085C009F07BEC14F006040710D8A4E8
:1008D2006DEF04F06FEF04F0A2EF04F0000181511C
:1008E200D8B476EF04F078EF04F081EF04F081C021
:1008F20030F17107D8A07207000E876F010E866F64
:10090200300E8625066E010E8721076E180E086EC0
:10091200080E096EB5EC18F00001FD0E7127FF0EEE
:10092200722339C018F03AC019F0300E1A6E010E57
:100932001B6E71C01CF072C01DF0DAEC16F020EFD5
:1009420009F082C006F083C007F084C008F085C0B9
:1009520009F07BEC14F006500710D8A4B3EF04F0B2
:10096200B5EF04F0E8EF04F000018151D8B4BCEF18
:1009720004F0BEEF04F0C7EF04F081C030F171075C
:10098200D8A07207000E876F010E866F300E862583
:10099200066E010E8721076E1C0E086E080E096E88
:1009A200B5EC18F00001FD0E7127FF0E722339C05D
:1009B20018F03AC019F0300E1A6E010E1B6E71C09B
:1009C2001CF072C01DF0DAEC16F020EF09F0000EF8
:1009D2000001886F000E896F800E8A6F3F0E8B6F49
:1009E200000E706F000E6F6F82C006F083C007F0BA
:1009F20084C008F085C009F0000E0A6E000E0B6E6E
:100A0200000E0C6E000E0D6E3AEC16F0D8B00CEF24
:100A120005F00EEF05F0EDEF05F01BEF05F073C0EA
:100A220088F074C089F075C08AF076C08BF000013E
:100A32006F4B702B88C014F089C015F08AC016F075
:100A42008BC017F0000E186E000E196E200E1A6E73
:100A5200410E1B6E81EC0BF014C073F015C074F0E4
:100A620016C075F017C076F000017351825D066EF4
:100A720074518359076E75518459086E76518559A0
:100A8200096E51EC17F009BE52EF05F0095008103B
:100A9200071009E1020E065CD8A052EF05F054EFF0
:100AA20005F010EF05F073C02DF074C02EF075C084
:100AB2002FF076C030F082C031F083C032F084C0B3
:100AC20033F085C034F0F9EC13F0D8A06BEF05F0E9
:100AD2006DEF05F010EF05F000018851825D066EA2
:100AE20089518359076E8A518459086E8B518559F1
:100AF200096E51EC17F009BE8CEF05F00950081091
:100B0200071007E1020E065CD8B08AEF05F08CEF01
:100B120005F0D4EF05F088C082F089C083F08AC066
:100B220084F08BC085F0EDEF05F088C006F089C037
:100B320007F08AC008F08BC009F0000E0A6E000EA2
:100B42000B6E200E0C6E410E0D6E96EC0DF006C073
:100B520088F007C089F008C08AF009C08BF0000154
:100B62006F07D8A070078851825D066E895183593C
:100B7200076E8A518459086E8B518559096E51EC62
:100B820017F009BED2EF05F009500810071007E16F
:100B9200020E065CD8B0D0EF05F0D2EF05F0D4EF2C
:100BA20005F08CEF05F082C02DF083C02EF084C0DA
:100BB2002FF085C030F088C031F089C032F08AC091
:100BC20033F08BC034F0F9EC13F0D8A0EBEF05F062
:100BD200EDEF05F096EF05F03FC069F069C06AF0ED
:100BE2000001F1BFF7EF05F0F9EF05F0FFEF05F0B7
:100BF200F0C062F0F1C063F003EF06F0000E636F25
:100C0200060E626F62C06DF063C06EF06D4B6E2BAC
:100C1200660E6A19D8A410EF06F012EF06F032EF52
:100C220006F070BF19EF06F017EF06F025EF06F099
:100C3200000E886F000E896F800E8A6F3F0E8B6FD9
:100C4200000E706F000E6F6F670E6919D8B42CEF2B
:100C520006F02EEF06F032EF06F06F516D2770515D
:100C62006E23000E786F000E776F82C079F083C01A
:100C72007AF084C07BF085C07CF088C073F089C0B4
:100C820074F08AC075F08BC076F0C3EF06F079C0BD
:100C920006F07AC007F07BC008F07CC009F088C07B
:100CA2000AF089C00BF08AC00CF08BC00DF096ECF4
:100CB2000DF006C01FF007C020F008C021F009C0E7
:100CC20022F0EEEC10F01FC07DF020C07EF021C0BB
:100CD2007FF022C080F07DC006F07EC007F07FC0AA
:100CE20008F080C009F076EC13F006C06BF007C084
:100CF2006CF079C02DF07AC02EF07BC02FF07CC052
:100D020030F07DC018F07EC019F07FC01AF080C0AC
:100D12001BF088C014F089C015F08AC016F08BC091
:100D220017F081EC0BF014C031F015C032F016C090
:100D320033F017C034F02CEC18F02DC079F02EC02F
:100D42007AF02FC07BF030C07CF088C006F089C0FA
:100D520007F08AC008F08BC009F0000E0A6E000E80
:100D62000B6E200E0C6E410E0D6E96EC0DF006C051
:100D720088F007C089F008C08AF009C08BF0000132
:100D8200774B782B6D51775D7851800A406E6E51AA
:100D9200800A4058D8A0D0EF06F0D2EF06F048EF14
:100DA20006F088C014F089C015F08AC016F08BC016
:100DB20017F0000E186E000E196EA00E1A6E400E7D
:100DC2001B6E81EC0BF014C07DF015C07EF016C0D6
:100DD2007FF017C080F079C02DF07AC02EF07BC072
:100DE2002FF07CC030F07DC031F07EC032F07FC089
:100DF20033F080C034F0F9EC13F0D8B003EF07F011
:100E020005EF07F010EF07F0000E00017D6F000EF6
:100E12007E6F000E7F6F000E806F39EF07F079C092
:100E220006F07AC007F07BC008F07CC009F07DC0F4
:100E32000AF07EC00BF07FC00CF080C00DF03AECDF
:100E420016F0D8A027EF07F029EF07F039EF07F0E7
:100E520000016BB12FEF07F031EF07F039EF07F028
:100E6200000E7D6F000E7E6F000E7F6F000E806F92
:100E720082C006F083C007F084C008F085C009F084
:100E82007DC00AF07EC00BF07FC00CF080C00DF078
:100E920021EC09F006C079F007C07AF008C07BF0B7
:100EA20009C07CF079C02DF07AC02EF07BC02FF003
:100EB2007CC030F0000E186E000E196E200E1A6EF5
:100EC200410E1B6E73C014F074C015F075C016F09D
:100ED20076C017F081EC0BF014C031F015C032F07F
:100EE20016C033F017C034F0F9EC13F0D8A07CEF41
:100EF20007F07EEF07F0A7EF07F000016F4B702BB2
:100F020073C014F074C015F075C016F076C017F0F7
:100F1200000E186E000E196E200E1A6E410E1B6E18
:100F220081EC0BF014C073F015C074F016C075F0AC
:100F320017C076F0660E00016A19D8A4A3EF07F075
:100F4200A5EF07F0A7EF07F06D4B6E2B73C088F08B
:100F520074C089F075C08AF076C08BF06FC060F003
:100F620070C061F0000E0001686F000E656F000E28
:100F7200646F000E786F000E776FA5EF08F079C0EE
:100F820006F07AC007F07BC008F07CC009F088C088
:100F92000AF089C00BF08AC00CF08BC00DF096EC01
:100FA2000DF006C01FF007C020F008C021F009C0F4
:100FB20022F0EEEC10F01FC07DF020C07EF021C0C8
:100FC2007FF022C080F07DC006F07EC007F07FC0B7
:100FD20008F080C009F076EC13F007BEFCEF07F0D2
:100FE200075007E10A0E065CD8B0FAEF07F0FCEFF3
:100FF20007F00CEF08F07DC006F07EC007F07FC05E
:1010020008F080C009F076EC13F006C06BF007C060
:101012006CF011EF08F0000E00016C6F090E6B6F9F
:1010220000016851D8A418EF08F01AEF08F042EF57
:1010320008F061BF21EF08F01FEF08F042EF08F05F
:10104200300E8625D96E010E8721DA6E2E0EDF6EE6
:10105200864B872B7107D8A07207010E686F42EF8B
:1010620008F0300E8625D96E010E8721DA6E300E19
:10107200DF6E864B872B7107D8A072076407D8A052
:10108200650764516511D8A449EF08F04BEF08F0E9
:1010920032EF08F0300E8625D96E010E8721DA6E06
:1010A2006B51300FDF6E864B872B7107D8A072070A
:1010B20079C02DF07AC02EF07BC02FF07CC030F0CA
:1010C2007DC018F07EC019F07FC01AF080C01BF0FE
:1010D20088C014F089C015F08AC016F08BC017F0D2
:1010E20081EC0BF014C031F015C032F016C033F0B1
:1010F20017C034F02CEC18F02DC079F02EC07AF025
:101102002FC07BF030C07CF088C006F089C007F0A9
:101112008AC008F08BC009F0000E0A6E000E0B6E3A
:10112200200E0C6E410E0D6E96EC0DF006C088F08E
:1011320007C089F008C08AF009C08BF0000160077F
:10114200D8A06107774B782B6D51775D7851800A73
:10115200406E6E51800A4058D8B0B2EF08F0B4EF3A
:1011620008F0C2EF08F087BFC0EF08F0875109E12D
:101172004B0E865DD8A0C0EF08F0C2EF08F0C0EFBA
:1011820007F0000E786F4F0E776F300E7725D96E0D
:10119200010E7821DA6E000EDF6E300E406E010E07
:1011A200416E8651405E8751415A77514024066E06
:1011B20078514120076E300E086E010E096E86C00E
:1011C2000AF087C00BF004EC18F000018651775D3D
:1011D200866F87517859876F8151D8A4F3EF08F051
:1011E200F6EF08F0010EF7EF08F0000E776F786B5C
:1011F2008151D8B4FFEF08F001EF09F00CEF09F0CC
:101202008607D8A08707300E8625D96E010E872162
:10121200DA6E81C0DFFF7751715F7851725B39C03E
:1012220018F03AC019F0300E86251A6E010E872189
:101232001B6E71C01CF072C01DF0DAEC16F01200C9
:101242000950800B126E09500924146E08AE2CEF5F
:1012520009F02EEF09F02FEF09F014801450D8B4E2
:1012620035EF09F037EF09F04CEF09F01428D8A454
:101272003DEF09F03FEF09F047EF09F0000E066E6F
:10128200000E076E000E086E000E096E088E000E2C
:10129200096E54EF09F0000E066E000E076E000E86
:1012A200086E000E096E0D50800B136E125013184B
:1012B200D8B45EEF09F060EF09F061EF09F0128C2B
:1012C2000D500D24136E0CAE69EF09F06BEF09F0AF
:1012D2006CEF09F013801350D8B472EF09F074EF79
:1012E20009F089EF09F01328D8A47AEF09F07CEF0E
:1012F20009F084EF09F0000E0A6E000E0B6E000E6C
:101302000C6E000E0D6E0C8E000E0D6E91EF09F03C
:10131200000E0A6E000E0B6E000E0C6E000E0D6EAD
:101322001450135CD8B098EF09F09AEF09F0C1EFAE
:1013320009F012AC9FEF09F0A1EF09F0A3EF09F059
:10134200800E121A14C015F013C014F015C013F059
:1013520006C015F00AC006F015C00AF007C015F065
:101362000BC007F015C00BF008C015F00CC008F058
:1013720015C00CF009C015F00DC009F015C00DF034
:10138200000E156E145013C00EF00F6A0E5E000EA2
:101392000F5A0FBED6EF09F00F5009E11A0E0E5C7C
:1013A200D8A0D6EF09F0D8EF09F00FEF0AF00650F7
:1013B200071008100910D8A4E1EF09F0E4EF09F0D2
:1013C200010EE5EF09F0000E156E000E066E000E1E
:1013D200076E000E086E000E096E13C014F018EFAF
:1013E2000AF015A0F7EF09F0F9EF09F0FFEF09F0A5
:1013F200D89015300109156E01EF0AF0D890153218
:1014020006A006EF0AF008EF0AF009EF0AF0158EBF
:1014120009340932083207320632142A1350145C96
:10142200D8A016EF0AF018EF0AF0F2EF09F012BC9A
:101432001DEF0AF01FEF0AF05FEF0AF01450D8A474
:1014420025EF0AF027EF0AF031EF0AF0000E066EE0
:10145200000E076E000E086E000E096E80EF0BF094
:101462000A5006260B5007220C5008220D50092262
:1014720009A03EEF0AF040EF0AF0ECEF0AF015A0E7
:1014820045EF0AF047EF0AF04DEF0AF0D890153019
:101492000109156E4FEF0AF0D890153206A054EFED
:1014A2000AF056EF0AF057EF0AF0158E09340932A6
:1014B200083207320632142AECEF0AF00A50065CB0
:1014C2000B5007580C5008580950800A0E6E0D50E8
:1014D200800A0E58D8B070EF0AF072EF0AF09DEF52
:1014E2000AF006500A5C0E6E07500B580F6E085039
:1014F2000C58106E09500D58116EFF0E0E24066E18
:10150200FF0E0F20076EFF0E1020086EFF0E112037
:10151200096E800E121A156C1550D8A493EF0AF0BA
:1015220095EF0AF0A5EF0AF0010E0626000E07223B
:1015320008220922A5EF0AF00A50065E0B50075A4C
:101542000C50085A0D50095A06500710081009107D
:10155200D8A4AEEF0AF0B0EF0AF0E5EF0AF01550AA
:10156200D8A4B6EF0AF0B8EF0AF0E5EF0AF0000EE1
:10157200066E000E076E000E086E000E096E80EFFA
:101582000BF0D890063607360836093615AECCEF82
:101592000AF0CEEF0AF0CFEF0AF0068015A0D4EFE2
:1015A2000AF0D6EF0AF0DAEF0AF0D8801536DCEF4F
:1015B2000AF0D89015361450D8B4E2EF0AF0E4EFEE
:1015C2000AF0E5EF0AF0140608AEEAEF0AF0ECEFD3
:1015D2000AF0C2EF0AF0000E136E15AEF3EF0AF036
:1015E200F5EF0AF00DEF0BF015C00EF07F0E0E16A0
:1015F200D8B4FEEF0AF000EF0BF004EF0BF0010E8F
:10160200136E0DEF0BF006A009EF0BF00BEF0BF0D2
:101612000DEF0BF000EF0BF01350D8B413EF0BF0FB
:1016220015EF0BF040EF0BF0010E0626000E07221D
:101632000822092209A020EF0BF022EF0BF040EF65
:101642000BF006C00EF007C00FF008C010F009C082
:1016520011F01134113210320F320E320EC006F078
:101662000FC007F010C008F011C009F01428D8B458
:101672003DEF0BF03FEF0BF040EF0BF0142A142874
:10168200D8B446EF0BF048EF0BF050EF0BF01450CC
:10169200D8A44EEF0BF050EF0BF062EF0BF0000E00
:1016A200066E000E076E000E086E000E096E1450D4
:1016B200D8A45EEF0BF060EF0BF062EF0BF0000EC0
:1016C200126E14A067EF0BF069EF0BF06CEF0BF0EA
:1016D200088E6DEF0BF0089ED8901430096E12AE92
:1016E20075EF0BF077EF0BF078EF0BF0098E06C079
:1016F20006F007C007F008C008F009C009F01200A0
:101702001750800B206E17501724266E16AE8CEFE2
:101712000BF08EEF0BF08FEF0BF026802650D8B433
:1017220095EF0BF097EF0BF0AAEF0BF02628D8A459
:101732009DEF0BF09FEF0BF0A7EF0BF0000E146E76
:10174200000E156E000E166E000E176E168EB2EF9C
:101752000BF0000E146E000E156E000E166E000ECB
:10176200176E1B50800B201A1B501B24216E1AAEC1
:10177200BDEF0BF0BFEF0BF0C0EF0BF0218021505B
:10178200D8B4C6EF0BF0C8EF0BF0DBEF0BF021285B
:10179200D8A4CEEF0BF0D0EF0BF0D8EF0BF0000E89
:1017A200186E000E196E000E1A6E000E1B6E1A8E47
:1017B200E3EF0BF0000E186E000E196E000E1A6E9B
:1017C200000E1B6E2150D8B4E9EF0BF0EBEF0BF0DB
:1017D200F3EF0BF02650D8A4F1EF0BF0F3EF0BF080
:1017E200FDEF0BF0000E146E000E156E000E166E5D
:1017F200000E176E95EF0DF01A501402F3CF2BF076
:10180200F4CF2CF02B50226E236A246A256A2C50C6
:10181200276E286A296A2A6A19501502F3CF2BF01B
:10182200F4CF2CF02B502226000E23222422252234
:101832002C502726000E282229222A22185016026E
:10184200F3CF2BF0F4CF2CF02B502226000E2322C4
:10185200242225222C502726000E282229222A2241
:1018620024C025F023C024F022C023F0226A18509D
:101872001502F3CF2BF0F4CF2CF02B5022262C5054
:101882002322000E2422000E252219501402F3CF27
:101892002BF0F4CF2CF02B5022262C502322000EBA
:1018A2002422000E252224C025F023C024F022C0C9
:1018B20023F0226A18501402F3CF2BF0F4CF2CF04D
:1018C2002B5022262C502322000E2422000E2522E9
:1018D2001A501502F3CF2BF0F4CF2CF02B50272601
:1018E2002C502822000E2922000E2A2219501602FC
:1018F200F3CF2BF0F4CF2CF02B5027262C5028229C
:10190200000E2922000E2A221A501602F3CF2BF0C3
:10191200F4CF2CF02B501C6E2C501D6E1E6A1F6AC9
:101922001EC01FF01DC01EF01CC01DF01C6A1C5002
:1019320027261D5028221E5029221F502A2222C04B
:101942001CF023C01DF024C01EF025C01FF0190E8C
:10195200B0EF0CF0D8901F321E321D321C32E82E2E
:10196200ABEF0CF01C5027261D5028221E502922B6
:101972001F502A2224C025F023C024F022C023F0C5
:10198200226A215026C01CF01D6A1C26000E1D2250
:10199200820E1C242B6EFF0E1D202C6EE6EF0CF027
:1019A200D8902736283629362A3625AEDBEF0CF0BA
:1019B200DDEF0CF0DEEF0CF02780D89022362336D4
:1019C200243625362B06D8A02C0629AEEBEF0CF0D8
:1019D200EDEF0CF0D1EF0CF0000E216E25AEF4EF1E
:1019E2000CF0F6EF0CF01AEF0DF0FF0E22141C6E45
:1019F200FF0E23141D6EFF0E24141E6E7F0E25147F
:101A02001F6E1C501D101E101F10D8B40BEF0DF0CE
:101A12000DEF0DF011EF0DF0010E216E1AEF0DF02A
:101A220027A016EF0DF018EF0DF01AEF0DF00DEFE5
:101A32000DF02150D8B420EF0DF022EF0DF046EF5B
:101A42000DF0010E2726000E282229222A222AA082
:101A52002DEF0DF02FEF0DF046EF0DF027C01CF02B
:101A620028C01DF029C01EF02AC01FF01F341F32EB
:101A72001E321D321C321CC027F01DC028F01EC0B1
:101A820029F01FC02AF02B4A2C2A2CBE51EF0DF050
:101A92002C5008E12B28D8A051EF0DF053EF0DF098
:101AA2005DEF0DF0000E276E000E286E800E296E7F
:101AB2007F0E2A6E8BEF0DF02CBE6AEF0DF02C50CC
:101AC20006E12B04D8B068EF0DF06AEF0DF076EF67
:101AD2000DF0000E276E000E286E000E296E000E0D
:101AE2002A6E000E206E8BEF0DF02BC026F0FF0E3B
:101AF2002716FF0E28167F0E2916000E2A1626A07C
:101B020085EF0DF087EF0DF088EF0DF0298ED8905C
:101B120026302A6E20502A1227C014F028C015F051
:101B220029C016F02AC017F012000950800B166E59
:101B3200095009241D6E08AEA1EF0DF0A3EF0DF0C0
:101B4200A4EF0DF01D801D50D8B4AAEF0DF0ACEF3C
:101B52000DF0C1EF0DF01D28D8A4B2EF0DF0B4EFD7
:101B62000DF0BCEF0DF0000E066E000E076E000EBB
:101B7200086E000E096E088E000E096EC9EF0DF098
:101B8200000E066E000E076E000E086E000E096E45
:101B92000D50800B161A0D500D241E6E0CAED4EF94
:101BA2000DF0D6EF0DF0D7EF0DF01E801E50D8B419
:101BB200DDEF0DF0DFEF0DF0F4EF0DF01E28D8A4ED
:101BC200E5EF0DF0E7EF0DF0EFEF0DF0000E0A6E0E
:101BD200000E0B6E000E0C6E000E0D6E0C8E000EC3
:101BE2000D6EFCEF0DF0000E0A6E000E0B6E000E75
:101BF2000C6E000E0D6E0A500B100C100D10D8A4B6
:101C020005EF0EF007EF0EF01FEF0EF0000E066E5E
:101C1200000E076E000E086E000E096E800E08128E
:101C22007F0E09121650091206C006F007C007F00F
:101C320008C008F009C009F062EF0FF01D50D8A4E7
:101C420025EF0EF027EF0EF031EF0EF0000E066ECC
:101C5200000E076E000E086E000E096E62EF0FF0A6
:101C62001E501DC00EF00F6A0E5E000E0F5A7F0E40
:101C72000E24176E000E0F20186E06C012F007C059
:101C820013F008C014F009C015F0000E066E000E25
:101C9200076E000E086E000E096E000E196E000E21
:101CA2001A6E000E1B6E000E1C6E000E1E6E92EF60
:101CB2000EF01E50D8B460EF0EF062EF0EF079EF26
:101CC2000EF0D8901236133614361536D8900636E2
:101CD2000736083609361CAE71EF0EF073EF0EF0C0
:101CE20074EF0EF00680D89019361A361B361C3661
:101CF2000A50125C0B5013580C5014580D501558C2
:101D0200D8A086EF0EF088EF0EF091EF0EF01C8C4B
:101D12000A50125E0B50135A0C50145A0D50155A99
:101D22001E2A190E1E6498EF0EF09AEF0EF05AEF6B
:101D32000EF01250131014101510D8B4A3EF0EF0B9
:101D4200A5EF0EF0BDEF0EF01980BDEF0EF0D890AA
:101D520006360736083609361CAEB2EF0EF0B4EF7F
:101D62000EF0B5EF0EF00680D89019361A361B36F3
:101D72001C361706D8A0180608AEC2EF0EF0C4EF44
:101D82000EF0A8EF0EF0000E1E6E1CAECBEF0EF0A2
:101D9200CDEF0EF0F1EF0EF0FF0E19140E6EFF0EE6
:101DA2001A140F6EFF0E1B14106E7F0E1C14116E90
:101DB2000E500F1010101110D8B4E2EF0EF0E4EF35
:101DC2000EF0E8EF0EF0010E1E6EF1EF0EF006A01F
:101DD200EDEF0EF0EFEF0EF0F1EF0EF0E4EF0EF09C
:101DE2001E50D8B4F7EF0EF0F9EF0EF01DEF0FF022
:101DF200010E0626000E07220822092209A004EF7E
:101E02000FF006EF0FF01DEF0FF006C00EF007C047
:101E12000FF008C010F009C011F011341132103265
:101E22000F320E320EC006F00FC007F010C008F0DD
:101E320011C009F0174A182A18BE28EF0FF01850DF
:101E420008E11728D8A028EF0FF02AEF0FF035EF9E
:101E52000FF0000E186E1768000E066E000E076E69
:101E6200000E086E000E096E18BE42EF0FF01850F9
:101E720006E11704D8B040EF0FF042EF0FF050EF39
:101E82000FF0000E186E000E176E000E066E000E9A
:101E9200076E000E086E000E096E000E166E17C059
:101EA2001DF01DA057EF0FF059EF0FF05CEF0FF090
:101EB200088E5DEF0FF0089ED8901D30096E13EF6B
:101EC2000EF012008EC0D9FF8FC0DAFFDECFF6FF10
:101ED200DDCFF7FF0800F550250AD8A473EF0FF005
:101EE20075EF0FF0D9EF10F08EC0D9FF8FC0DAFF77
:101EF200DE2A000EDD22000E0001EF6F000EEE6FF3
:101F0200EEC0F6F0F069F1698EC0D9FF8FC0DAFF3A
:101F1200DECFF6FFDDCFF7FF0800F5502E0AD8A47A
:101F220095EF0FF097EF0FF004EF10F0000EF16F46
:101F3200000EF06F8EC0D9FF8FC0DAFFDE2A000ECE
:101F4200DD228EC0D9FF8FC0DAFFDECFF6FFDDCFF4
:101F5200F7FF0800F5502A0AD8A4B2EF0FF0B4EF49
:101F62000FF0D1EF0FF08EC0D9FF8FC0DAFFDE2A5B
:101F7200000EDD2290C0D9FF91C0DAFFDFCF42F020
:101F8200020EDE26DFCF43F0000EDD2242C0D9FF73
:101F920043C0DAFFDECFF0F0DDCFF1F004EF10F056
:101FA2008EC0D9FF8FC0DAFFDECF0CF0DDCF0DF08F
:101FB200D1EC12F00CC0F0F00DC0F1F0E8EF0FF030
:101FC2008EC0D9FF8FC0DAFFDE2A000EDD228EC05E
:101FD200D9FF8FC0DAFFDECFF6FFDDCFF7FF0800B3
:101FE200F5CF42F0D00E4224436E446AFF0E4422E3
:101FF200445009E10A0E435CD8A002EF10F004EF4E
:1020020010F0E1EF0FF08EC0D9FF8FC0DAFFDECF04
:102012004EF0DDCF4FF04EC0F6FF4FC0F7FF080085
:10202200F5CF4DF021EF10F04E4A4F2A3AEF10F063
:102032006C0E4D6E3AEF10F0000E4D6E3AEF10F04E
:102042004D50426E436A4350000AD8B42BEF10F051
:102052001DEF10F042504C0AD8B415EF10F02A0AC6
:10206200D8B419EF10F00A0AD8B415EF10F01DEF2A
:1020720010F04EC0F6FF4FC0F7FF0800F550660A99
:10208200D8A446EF10F048EF10F0D0EF10F07EEF3A
:1020920010F090C0D9FF91C0DAFFDFCF42F0040EFA
:1020A200DE26DFCF43F0000EDD2242C0D9FF43C05F
:1020B200DAFFDECF45F0DECF46F0DECF47F0DECFEF
:1020C20048F093EF10F090C0D9FF91C0DAFFDFCF54
:1020D20042F0040EDE26DFCF43F0000EDD2242C0C6
:1020E200D9FF43C0DAFFDECF45F0DECF46F0DECFC8
:1020F20047F0DECF48F093EF10F04D50426E436A46
:102102004350000AD8B488EF10F093EF10F0425019
:102112004C0AD8B464EF10F0200AD8B44AEF10F099
:1021220093EF10F0010E4E24426E000E4F20436ECC
:102132008EC0D9FF8FC0DAFF42C0DEFF43C0DDFF91
:10214200BAEF10F08CC039F08DC03AF045C03BF0C8
:1021520046C03CF047C03DF048C03EF04EC0F6FFDE
:102162004FC0F7FF0800F5CF3FF011EC04F0EDEFA0
:1021720010F04EC0F6FF4FC0F7FF0800F550426E58
:10218200436A4350000AD8B4C9EF10F0D0EF10F000
:102192004250660AD8B4A3EF10F0D0EF10F08EC010
:1021A200D9FF8FC0DAFFDE2A000EDD22EDEF10F03C
:1021B2008EC0D9FF8FC0DAFFDECFF6FFDDCFF7FF8B
:1021C2000800F550086E096A8CC00AF08DC00BF049
:1021D2008FEC16F0D0EF10F01200E6C02FF0E7C03F
:1021E20030F0E8C031F0E9C032F01FC02FF020C05B
:1021F20030F021C031F022C032F0810E236EFF0E8A
:10220200246E2FC025F030C026F031C027F032C036
:1022120028F0180E12EF11F0D89028322732263209
:102222002532E82E0DEF11F0255023242D6E000EDD
:1022320024202E6E2EBE27EF11F02E5009E1170E2C
:102242002D5CD8A027EF11F029EF11F033EF11F038
:102252001FC01FF020C020F021C021F022C022F0B8
:10226200F6EF11F02EBE38EF11F03AEF11F0AAEFAF
:1022720011F02DC023F0FF0E246EFF0E256E7F0E8F
:10228200266E000E276E236649EF11F051EF11F012
:1022920027342732263225322432232E44EF11F0FE
:1022A20024C029F025C02AF026C02BF027C02CF02C
:1022B20029502F14236E2A503014246E2B503114BF
:1022C200256E2C503214266E235024102510261011
:1022D200D8A46EEF11F070EF11F072EF11F029EF48
:1022E20011F02FC023F030C024F031C025F032C0ED
:1022F20026F0200E82EF11F0D890263225322432B9
:102302002332E82E7DEF11F02350241025102610E1
:10231200D8B48EEF11F090EF11F098EF11F0295030
:102322002F262A5030222B5031222C503222291CA7
:10233200236E2A1C246E2B1C256E2C1C266E235009
:102342002F16245030162550311626503216EEEF35
:1023520011F02FC023F030C024F031C025F032C07C
:1023620026F0200EBAEF11F0D89026322532243210
:102372002332E82EB5EF11F0235024102510261039
:10238200D8A4C6EF11F0C8EF11F0D2EF11F0000E91
:102392002F6E000E306E000E316E000E326EEEEFBA
:1023A20011F0D8902F34236E3034246E3134256EE0
:1023B2003234266E2350241025102610D8B4E4EFB0
:1023C20011F0E6EF11F0EEEF11F0000E2F6E000E9D
:1023D200306E800E316EBF0E326E2FC01FF030C0D5
:1023E20020F031C021F032C022F012000E6E0E50E9
:1023F200D8B4FEEF11F000EF12F022EF12F009BE96
:1024020007EF12F005EF12F022EF12F006C00AF009
:1024120007C00BF008C00CF009C00DF00A1E0B1E1D
:102422000C1E0D1E0A2A000E0B220C220D220AC0BF
:1024320010F00BC011F00CC012F00DC013F02AEF17
:1024420012F006C010F007C011F008C012F009C067
:1024520013F00650071008100910D8A433EF12F039
:1024620035EF12F03FEF12F0000E066E000E076E0F
:10247200000E086E000E096ED0EF12F0960E0F6E6F
:1024820049EF12F00F2AD890133212321132103261
:10249200000E10140A6E000E11140B6E000E1214B0
:1024A2000C6EFE0E13140D6E0A500B100C100D1054
:1024B200D8A45EEF12F060EF12F043EF12F06EEF6D
:1024C20012F00F2A010E1026000E112212221322E0
:1024D200D8901332123211321032000E10140A6EDA
:1024E200000E11140B6E000E12140C6EFF0E13145C
:1024F2000D6E0A500B100C100D10D8A483EF12F0C1
:1025020085EF12F062EF12F08DEF12F00F06D89005
:10251200103611361236133612BE92EF12F094EFC5
:1025220012F09CEF12F0020E0F609AEF12F09CEF85
:1025320012F087EF12F00FB0A1EF12F0A3EF12F03A
:10254200A4EF12F0129ED8900F320FC00AF00B6A5D
:102552000C6A0D6A0AC00DF00C6A0B6A0A6A0A500C
:1025620010120B5011120C5012120D5013120E5069
:10257200D8B4BEEF12F0C0EF12F0C8EF12F009BEED
:10258200C7EF12F0C5EF12F0C8EF12F0138E10C0B1
:1025920006F011C007F012C008F013C009F01200D3
:1025A200000E146E000E136E000E126E000E116EEF
:1025B200DDEF12F00C4A0D2A0CC0F6FF0DC0F7FF3A
:1025C2000800F550200AD8B4E9EF12F0EBEF12F050
:1025D200DBEF12F00CC0F6FF0DC0F7FF0800F5CFDD
:1025E2000EF0F70E0E240F6E106AFF0E102210501E
:1025F20009E1050E0F5CD8A001EF13F003EF13F011
:10260200DBEF12F00DEF13F0000E126E010E116EE1
:102612000C4A0D2A42EF13F00CC0F6FF0DC0F7FF73
:102622000800F5500E6E0F6A0F50000AD8B41CEF66
:1026320013F042EF13F00E502B0AD8B409EF13F047
:10264200060AD8B405EF13F042EF13F013C006F0F8
:1026520014C007F0000E096E0A0E086E32EC1AF072
:102662000CC0F6FF0DC0F7FF0800F550065E000E25
:10267200075A300E0624136E000E0720146E09EF5F
:1026820013F00CC0F6FF0DC0F7FF0800F5CF0EF0F7
:10269200D00E0E240F6E106AFF0E1022105009E1A8
:1026A2000A0E0F5CD8A058EF13F05AEF13F027EF81
:1026B20013F011501210D8A461EF13F063EF13F06E
:1026C20071EF13F013C00EF014C00FF00E1E0F1EA8
:1026D2000E4A0F2A0EC00CF00FC00DF075EF13F06A
:1026E20013C00CF014C00DF01200083409340F6E40
:1026F2000F50D8A47FEF13F081EF13F08BEF13F09C
:10270200000E066E000E076E000E086E000E096EB9
:10271200F8EF13F006C00AF007C00BF008C00CF087
:1027220009C00DF0200E9BEF13F0D8900D320C3241
:102732000B320A32E82E96EF13F00A500E6E088E14
:10274200FF0E0616FF0E0716FF0E0816000E0916DC
:10275200960E0F5E0FBEB2EF13F0B0EF13F0C8EF9C
:1027620013F00F50800A970FD8B0BAEF13F0BCEFF6
:1027720013F0BEEF13F081EF13F0D8900932083254
:10278200073206320F3EBEEF13F0E0EF13F01F0EDA
:102792000F64CEEF13F0D0EF13F0D8EF13F081EF08
:1027A20013F0D89006360736083609360F060F5052
:1027B200D8A4DEEF13F0E0EF13F0D2EF13F00E50D7
:1027C200D8B4E6EF13F0E8EF13F0F0EF13F0091EC0
:1027D200081E071E066C000E07220822092206C0E8
:1027E20006F007C007F008C008F009C009F012009F
:1027F200000E2D14356E000E2E14366E800E2F1420
:10280200376E7F0E3014386E355036103710381050
:10281200D8A40EEF14F010EF14F018EF14F0000E1D
:102822002D6E000E2E6E000E2F6E000E306E000EFC
:102832003114356E000E3214366E800E3314376E3C
:102842007F0E3414386E3550361037103810D8A435
:102852002DEF14F02FEF14F037EF14F0000E316E5D
:10286200000E326E000E336E000E346E30AE3CEF50
:1028720014F03EEF14F047EF14F02D6C2E1ED8B07A
:102882002E2A2F1ED8B02F2A800E305634AE4CEF8F
:1028920014F04EEF14F057EF14F0316C321ED8B032
:1028A200322A331ED8B0332A800E3456000E2D1A27
:1028B200000E2E1A000E2F1A800E301A000E311A38
:1028C200000E321A000E331A800E341A31502D5C6B
:1028D20032502E5833502F5834503058D8B074EFED
:1028E20014F076EF14F079EF14F0D8907AEF14F038
:1028F200D8801200EAC010F0EBC011F0ECC012F068
:10290200EDC013F006C010F007C011F008C012F0BD
:1029120009C013F010C00AF011C00BF012C00CF085
:1029220013C00DF0180E9BEF14F0D8900D320C323C
:102932000B320A32E82E96EF14F00A500E6E0F6A2E
:102942000E500F10D8A4A8EF14F0AAEF14F0CAEF9B
:1029520014F0D89010340A6E11340B6E12340C6ECF
:1029620013340D6E0A500B100C100D10D8A4BCEFCE
:1029720014F0BEEF14F0C4EF14F0000E076E020E56
:10298200066EF9EF14F0000E076E030E066EF9EFF5
:1029920014F00E280F10D8A4D1EF14F0D3EF14F0D6
:1029A200F5EF14F010C00AF011C00BF012C00CF0D9
:1029B20013C00DF0090ED8900A360B360C360D36C0
:1029C200E82EDCEF14F00A500B100C100D10D8B4E6
:1029D200EDEF14F0F0EF14F0010EF1EF14F0000E31
:1029E200066E076AF9EF14F0000E076E040E066E0B
:1029F200120056EC1AF071EC1AF017EC17F08390F3
:102A0200F28EF28C000E0001D36F000ED26FD5EC65
:102A120018F00AC0D0F00BC0D1F0D00E2D6E000E0F
:102A22002E6E84EC17F0A40E0001A26F000EA36FAD
:102A3200D890D235D96ED335DA6ED890D936DA3607
:102A4200A251D926A351DA222DC0DEFF2EC0DEFF0D
:102A52002FC0DEFF30C0DEFF0D0E0001A26FFB0EA5
:102A6200E82EFED7A22FFCD700D00001D24BD32BE9
:102A7200D3BF45EF15F0D35109E10A0ED25DD8A0BC
:102A820045EF15F047EF15F008EF15F0A40E396E7B
:102A9200000E3A6ED8EC15F039C0CCF03AC0CDF049
:102AA2003BC0CEF03CC0CFF0010E00019A6F080E81
:102AB2009B6FCCC09CF0CDC09DF0CEC09EF0CFC02D
:102AC2009FF00AEC1AF0060E0001A36F130EA26F1C
:102AD200AD0EE82EFED7A22FFCD7A32FFAD700D037
:102AE20003EF15F0A2EF00F0000E5324D96EDA6A5C
:102AF200010EDA22000EDF6EABA482EF15F084EF36
:102B020015F09AEF15F0000E5324D96EDA6A010E11
:102B1200DA220101DF8202D89AEF15F005000001E6
:102B2200FA6EDE51FD6EDF51FE6EF850FF6EFA5006
:102B32001200ABA29FEF15F0A1EF15F0B7EF15F061
:102B4200000E5324D96EDA6A010EDA220101DF8403
:102B520002D8B7EF15F005000001FA6EDC51FD6EE8
:102B6200DD51FE6EF850FF6EFA501200000E532433
:102B7200D96EDA6A010EDA22DF50D8B4C3EF15F04B
:102B8200C5EF15F0D5EF15F002D8D3EF15F005001B
:102B92000001FA6EDA51FD6EDB51FE6EF850FF6EE7
:102BA200FA501200D7EF15F0F5EC19F01200000EF2
:102BB2003E6E000E3D6E39C0D9FF3AC0DAFFDECF5D
:102BC2002DF0DECF2EF0DECF2FF0DECF30F0D8901A
:102BD2003D34D96E3E34DA6ED890D936DA36395071
:102BE200D9263A50DA22DECF31F0DECF32F0DECF14
:102BF20033F0DECF34F0F9EC13F0D8B003EF16F077
:102C020005EF16F01DEF16F0D8903D34D96E3E3424
:102C1200DA6ED890D936DA363950D9263A50DA22D5
:102C220039C0E1FF3AC0E2FFDECFE6FFDECFE6FFCA
:102C3200DECFE6FFDECFE6FF3D4A3E2A3EBE2BEF69
:102C420016F03E5009E10A0E3D5CD8A02BEF16F0BB
:102C52002DEF16F0DCEF15F039C0D9FF3AC0DAFFDC
:102C6200DECF39F0DECF3AF0DECF3BF0DECF3CF004
:102C72001200000E06140E6E000E07140F6E800E68
:102C82000814106E7F0E0914116E0E500F101010E2
:102C92001110D8A44FEF16F051EF16F059EF16F0BD
:102CA200000E066E000E076E000E086E000E096E14
:102CB200000E0A140E6E000E0B140F6E800E0C1412
:102CC200106E7F0E0D14116E0E500F101010111099
:102CD200D8A46EEF16F070EF16F078EF16F0000E33
:102CE2000A6E000E0B6E000E0C6E000E0D6E0A5078
:102CF20006180FE10B5007180CE10C50081809E1F7
:102D02000D500918D8B488EF16F08AEF16F08DEF3F
:102D120016F0D8908EEF16F0D88012000A500B10E1
:102D2200D8B496EF16F098EF16F0A1EF16F00A500D
:102D32000B10D8A49FEF16F0A1EF16F0A6EF16F035
:102D4200085099EC1AF0D9EF16F020EE09F00A506B
:102D5200D9260B50DA22DE50DE10D8B4B3EF16F0CB
:102D6200B5EF16F0D0EF16F020EE09F00A50D92692
:102D72000B50DA2210EE03F00A50E1260B50E22249
:102D8200DE50E65CE650800A106EDE50800A105873
:102D9200D8B0CEEF16F0D0EF16F0D9EF16F020EE45
:102DA20003F00A50D9260B50DA22DE2A000EDD2269
:102DB20012001DBEDFEF16F0E1EF16F0E7EF16F09E
:102DC2001CC021F01DC022F0EBEF16F0000E226EA7
:102DD200000E216E000E206E000E1F6EFDEF16F02B
:102DE200000E096E200E086E18C00AF019C00BF012
:102DF2008FEC16F01F4A202A21501F5C2050800AB7
:102E02001E6E2250800A1E58D8A00AEF17F00CEF4F
:102E120017F0F1EF16F01AC011F01BC012F018C033
:102E220013F019C014F072EC18F012009D9AEA0E19
:102E3200066E2A0E076EB7EC1AF09D98EA0E066E21
:102E4200310E076EB2EC1AF0080EB86E900EAB6E31
:102E5200240EAC6E670EAF6E000EB06EC20E066E22
:102E6200350E076EC1EC1AF0A60E066E350E076E11
:102E7200BCEC1AF0AC0E066E350E076EC6EC1AF0FC
:102E8200000E506E000E556E000E546E100E586EEF
:102E9200000E536E000E526E000E516E9D8A12008D
:102EA20009BE60EF17F009500810071006E106048A
:102EB200D8B05EEF17F060EF17F07BEF17F006C0A7
:102EC2000AF007C00BF008C00CF009C00DF00A1E92
:102ED2000B1E0C1E0D1E0A2A000E0B220C220D22A6
:102EE2000AC006F00BC007F00CC008F00DC009F0D4
:102EF20083EF17F006C006F007C007F008C008F01D
:102F020009C009F012002DC0D9FF2EC0DAFFDECFB2
:102F120031F0DDCF32F031C006F032C007F0086A7E
:102F2200096A000EF7EC11F006C014F007C015F0A4
:102F320008C016F009C017F0100E186E040E196EB4
:102F4200C80E1A6E3A0E1B6E81EC0BF014C02DF0F7
:102F520015C02EF016C02FF017C030F01200066E0A
:102F62005850D8B4B7EF17F0B9EF17F0B1EF17F028
:102F72009DB8BEEF17F0C0EF17F0C4EF17F006C010
:102F8200ADFFD9EF17F09D98200E5524D96EDA6A5D
:102F9200010EDA2206C0DFFF552A0F0E5564D4EF68
:102FA20017F0D6EF17F0D8EF17F0000E556E58064F
:102FB2009D88120094C098F095C099F0F0EF17F038
:102FC20092C08CF093C08DF0980E00018E6F000EAF
:102FD2008F6F96C090F097C091F063EC0FF098C09D
:102FE200F6FF99C0F7FF0800F5500009D8A4FCEFDE
:102FF20017F0FEEF17F0E1EF17F0000E0001936FEC
:10300200000E926F120008C00FF009C010F006C047
:103012000DF007C00EF01EEF18F00FC0D9FF10C060
:10302200DAFFDF500C6E0F4A102A0DC0D9FF0EC016
:10303200DAFF0CC0DFFF0D4A0E2A0A06D8A00B06E3
:103042000A2806E10B28D8A429EF18F02BEF18F074
:103052000EEF18F01200000E311A000E321A000E96
:10306200331A800E341A2DC006F02EC007F02FC07E
:1030720008F030C009F031C00AF032C00BF033C0A2
:103082000CF034C00DF021EC09F006C02DF007C0A1
:103092002EF008C02FF009C030F01200010E0A6EA7
:1030A200200E06180710D8B459EF18F05BEF18F08D
:1030B2006EEF18F0F70E0624086EFF0E0720096E59
:1030C200095009E1050E085CD8A06AEF18F06CEF10
:1030D20018F06EEF18F0000E0A6E0AC006F0076ACA
:1030E2001200000E176E000E166E83EF18F015C058
:1030F20008F0096A13C00AF014C00BF08FEC16F046
:10310200164A172A16501124D96E17501220DA6E59
:10311200DF50156E1550D8A491EF18F093EF18F008
:1031220078EF18F01200000E8D6E000E8C6E000EFD
:10313200896E000E8A6E000E8B6E070E966E926876
:103142009368870E946EFE0E956EFE0E0F015E6FF3
:10315200040E5D6F380E5C6F070E5F6F2D0E5B6F96
:10316200000E856EF18E120008C00AF009C00BF045
:1031720006C00CF007C00DF00AC0F6FF0BC0F7FF47
:103182000A4A0B2A0CC0D9FF0DC0DAFF0C4A0D2ADD
:103192000800F5CFDFFFDF50D8A4D2EF18F0D4EF4C
:1031A20018F0BDEF18F01200000E65EC1AF0D9EC21
:1031B2001AF0C80E00D0E82EFDD77CEC1AF0E80613
:1031C200D8A4E6EF18F0E8EF18F0F0EF18F086EC6C
:1031D2001AF006C00AF007C00BF0F4EF18F0000E68
:1031E2000B6E000E0A6E1200100E5860FBEF18F004
:1031F200FDEF18F013EF19F0200E5424D96EDA6A9D
:10320200010EDA22DF50AD6E542A0F0E54640CEF19
:1032120019F00EEF19F010EF19F0000E546E582A43
:1032220014EF19F09D9812000650071008100910AB
:10323200D8B41EEF19F020EF19F028EF19F0000EA4
:10324200061A000E071A000E081A800E091A06C086
:1032520006F007C007F008C008F009C009F0120024
:10326200F292F18CC00E066E350E076EADEC1AF0BE
:10327200F288F090F18ABE0E066E350E076EA8EC4B
:103282001AF0F086F092F188BC0E066E350E076ECB
:10329200A3EC1AF0F088120001EE00F0800EEE6A44
:1032A200E806FDE100EEE6F0110EEE6AE806FDE149
:1032B20000EE50F0080EEE6AE806FDE159905992D0
:1032C200000EF86E0001FAEF14F0F29456C0D6FF29
:1032D2000001F44BF52BD00EF41907E1070EF51996
:1032E200D8A476EF19F078EF19F07CEF19F0000E00
:1032F200F56F000EF46F7FEC19F012000001E0513F
:10330200E111D8B487EF19F089EF19F096EF19F0AF
:1033120002D896EF19F00500FA6EE051FD6EE15108
:10332200FE6EF850FF6EFA50120012000001D451E6
:10333200D511D8B49FEF19F0A1EF19F0AEEF19F043
:1033420002D8AEEF19F00500FA6ED451FD6ED551D8
:10335200FE6EF850FF6EFA50120012000001D651B4
:10336200D711D8B4B7EF19F0B9EF19F0C6EF19F0C9
:1033720002D8C6EF19F00500FA6ED651FD6ED7518C
:10338200FE6EF850FF6EFA50120012000001D85182
:10339200D911D8B4CFEF19F0D1EF19F0DEEF19F04F
:1033A20002D8DEEF19F00500FA6ED851FD6ED95140
:1033B200FE6EF850FF6EFA5012001200D00E062474
:1033C200086EFF0E0720096E09500AE10A0E085C1A
:1033D200D8A0EEEF19F0F1EF19F0010EF2EF19F0AB
:1033E200000E066E076A1200100E5324D96EDA6AB6
:1033F200010EDA22AECFDFFF532A0F0E536404EF21
:103402001AF006EF1AF008EF1AF0000E536E512A66
:1034120012009C0E0001A06F000EA16F000E926FB1
:10342200000E936F9AC094F09BC095F0A00E966F19
:10343200000E976FDBEC17F01200F29283B024EFCC
:103442001AF027EF1AF0010E28EF1AF0000EFF0A09
:10345200016E83500118FE0B0118836EC7EC19F040
:10346200120006500802F3CF0AF0F4CF0BF0065018
:103472000902F3500B2607500802F3500B260AC02C
:1034820006F00BC007F01200000ED76E000ED66ECB
:10349200000E566EF294F28ABA0E066E350E076E62
:1034A2009EEC1AF0DF0ED56E1200DBEC1AF094ECF3
:1034B20018F090EC1AF031EC19F045EC1AF071ECBE
:1034C2001AF017EC17F01200076E07C006F0064656
:1034D2000646C2500618830B0618C26EC28012003E
:1034E200000EC16E0C0EC06E000EC36E000EC46ED6
:1034F200010EC26E1200C2A281EF1AF084EF1AF01E
:10350200010E85EF1AF0000E1200C450096E086A0F
:10351200C3500824066E000E0920076E1200500EDA
:10352200D36E000ED26E000E9B6E000EB56E1200B0
:10353200076E0750B0EC17F0120006C0E0F007C0AB
:10354200E1F0120006C0D4F007C0D5F0120006C0A8
:10355200D6F007C0D7F0120006C0D8F007C0D9F0E5
:10356200120006C0E4F007C0E5F0120006C0E2F067
:1035720007C0E3F0120006C0DCF007C0DDF0120065
:1035820006C0DEF007C0DFF0120006C0DAF007C0A6
:10359200DBF01200F09297EC19F01200F090AFEC11
:1035A20019F01200AB98AB881200F5EC19F012007A
:1035B200C2821200D09E12001200120012001200EB
:0235C2001200F5
:020000040020DA
:08000000FFFFFFFFFFFFFFFF00
:020000040030CA
:0E00000000285F3CFFD385FF0FC00FE00F40CC
:00000001FF
